:020000040800F2
:10000000000A00202902000805220008D91900086A
:10001000AB1E00081F040008812700080000000034
:10002000000000000000000000000000092200089D
:100030002505000800000000072200080B22000828
:10004000430200084302000843020008430200087C
:10005000430200084302000843020008430200086C
:10006000430200084302000843020008430200085C
:10007000430200084302000843020008430200084C
:10008000430200084302000843020008430200083C
:10009000430200084302000843020008430200082C
:1000A000430200084302000843020008430200081C
:1000B000430200084302000843020008430200080C
:1000C00043020008430200084302000843020008FC
:1000D00043020008430200085D2700086927000862
:1000E00043020008430200084302000843020008DC
:1000F00043020008430200084302000843020008CC
:1001000043020008430200084302000843020008BB
:1001100043020008430200084302000843020008AB
:10012000430200084302000843020008430200089B
:10013000430200084302000843020008430200088B
:10014000430200084302000843020008430200087B
:100150004302000843020008430200087527000814
:10016000430200084302000843020008430200085B
:100170004302000843020008430200080000000098
:10018000430200084302000800F002F800F03CF8C7
:100190000AA090E8000C82448344AAF10107DA45E2
:1001A00001D100F031F8AFF2090EBAE80F0013F0F8
:1001B000010F18BFFB1A43F001031847F426000093
:1001C00014270000103A24BF78C878C1FAD8520723
:1001D00024BF30C830C144BF04680C6070470000C1
:1001E0000023002400250026103A28BF78C1FBD840
:1001F000520728BF30C148BF0B6070471FB502F0DF
:1002000045FB1FBD10B510BD00F0CFF81146FFF73C
:10021000F5FF02F0C7FA00F0EDF803B4FFF7F2FFC4
:1002200003BC00F0F5F80000094880470948004782
:10023000FEE7FEE7FEE7FEE7FEE7FEE7FEE7FEE796
:10024000FEE7FEE704480549054A064B70470000F3
:10025000B12200088901000800040020000A0020E3
:10026000000600200006002053EA020C00F069801E
:100270002DE9F04B4FF00006002B1FBFB3FA83F5BA
:1002800003FA05F424FA05F65E4012BF1643B2FAEB
:1002900082F502FA05F4C5F120051EBF22FA05FC1D
:1002A00044EA0C04203556EA044C4FEA144418BFC3
:1002B000641C4FF000084FF00009904271EB030CF2
:1002C00039D3002919BFB1FA81F701FA07F6B0FA5C
:1002D00080F700FA07F6C7F120071EBF20FA07FCD7
:1002E00046EA0C062037B6FBF4FCA7EB0507103FE7
:1002F00007F01F0BCBF120060CFA0BFB2CFA06F6CD
:1003000044BFB3460026202FA4BF5E464FF0000B2B
:100310005BEA060C08BF4FF0010B19EB0B09ABFBB6
:10032000027C48EB0608C01B06FB02CC0BFB03CC8F
:1003300071EB0C01C1E70B46024641464846BDE859
:10034000F08B13B54FF000004FF00001AFF30080C9
:10035000BDE81C4070474FF0000200B513469446BC
:100360009646203922BFA0E80C50A0E80C50B1F10D
:100370002001BFF4F7AF090728BFA0E80C5048BF21
:100380000CC05DF804EB890028BF40F8042B08BFBF
:10039000704748BF20F8022B11F0804F18BF00F8BB
:1003A000012B7047704770477047754600F02CF876
:1003B000AE4605006946534620F00700854618B052
:1003C00020B5FFF73FFFBDE820404FF000064FF09B
:1003D00000074FF000084FF0000B21F00701AC467A
:1003E000ACE8C009ACE8C009ACE8C009ACE8C00999
:1003F0008D46704710B50446AFF300802046BDE837
:100400001040FFF70ABF0000004870479C0300201F
:1004100001491820ABBEFEE7260002007047FEE748
:1004200001F044BD10B5002001F08AFD20B9012083
:1004300001F086FD002800D0012010BD9FED141AA8
:1004400010B5C0EE010A9FED131A2DED028B20EEC0
:10045000818AB5EEC08AF1EE10FA01D2B1EE488A77
:10046000B5EEC00AF1EE10FA01DB002400E0012431
:100470002146B0EE480A002001F072FDB0EE480AB5
:10048000BDEC028B2146BDE81040012001F068BDA3
:100490001A344C4300004845DFED1D0ADFED1F1AFA
:1004A00010B580EE201ADFED1B0A2DED028B61EEF8
:1004B000200A9FED191A60EE810A80EEA11ADFED85
:1004C000180A21EE208AB5EEC08AF1EE10FA01D2A8
:1004D000B1EE488AB5EEC00AF1EE10FA07DD01214F
:1004E000B0EE480A002001F03BFD002106E00021AB
:1004F000B0EE480A084601F033FD0121B0EE480A8B
:10050000BDEC028B0120BDE8104001F029BD0000C8
:100510000000B443DB0F4940000016431A344C433B
:1005200000004845704772B6FEE72DE9F0410446E9
:10053000876D00F065F9064694F83500002502281D
:1005400006D08020606584F834500120BDE8F08139
:100550002068016821F0160101602068416921F0DE
:1005600080014161206C08B9A06C20B1206801684D
:1005700021F0080101602068016821F0010101609B
:100580000CE000F03DF9801B052807D920206065AC
:10059000032084F8350084F83450D7E720680068D9
:1005A000C007EED194F85C103F208840B86001206D
:1005B00084F8350084F834500020C7E790F83510EF
:1005C000022903D08021416501207047052180F870
:1005D00035100068016821F00101016000207047BA
:1005E00070B5044600F00CF90546601C02D00448C2
:1005F0000078044400F004F9401BA042FAD370BD17
:10060000040000202DE9F84FDFF8BCA100220125ED
:1006100003264FF00F090AF1040BAAF1040E00BFE4
:100620000B6805FA02F42340A34270D10F7907F05A
:100630000307012F01D0022F16D187684FEA420825
:1006400006FA08FC27EA0C07D1F80CC00CFA08FCE3
:100650004CEA070CC0F808C04768A7430C79C4F3FC
:10066000001494403C4344600C79E443A4070AD04E
:10067000C4684FEA420C06FA0CF7BC438F6807FACD
:100680000CF72743C7600C7904F00304022C12D145
:10069000D40800EB840CDCF820405707FF0E09FA61
:1006A00007F824EA0804D1F8108008FA07F848EAA5
:1006B0000408CCF8208004684FEA420C06FA0CF7D4
:1006C000BC430F7907F0030707FA0CF727430760CD
:1006D0004C6814F4403F70D03C4C276847F4804786
:1006E0002760246822F0030704F480440094384C07
:1006F00007EB040CDCF8084897074FEA177809FA6B
:1007000008F7BC43334FB84202D1002724E054E03D
:10071000314FB84201D101271EE0304FB84201D11C
:10072000022719E02E4FB84201D1032714E02D4FC4
:10073000B84201D104270FE02B4FB84201D1052761
:100740000AE02A4FB84201D1062705E0284FB842F7
:1007500001D1072700E0082707FA08F72743CCF85C
:100760000878DAF800405746D1F804C09C435FEAA5
:10077000CC2C00D51C433C60DBF800405F46D1F830
:1007800004C09C435FEA8C2C00D51C433C60DEF81F
:1007900000407746D1F804C09C435FEA8C3C00D50A
:1007A0001C433C60084F083F3C68D1F804C09C43A0
:1007B0005FEACC3C00D51C433C60521C102AFFF47D
:1007C0002FAFBDE8F88F0000083C014044380240DC
:1007D00000300140000002400004024000080240D6
:1007E000000C0240001002400014024000180240B9
:1007F000001C02400AB1816170470904FBE7000058
:1008000001488068704700000400002070B50400B3
:1008100025D094F83D00002520B984F83C502046AE
:1008200000F0B8F8242084F83D002068016821F029
:10083000010101602068016841F400410160206805
:10084000016821F40041016000F064FA4D4A6168DA
:10085000914201D84C4900E04C49884201D2012024
:1008600070BD4B492368B0FBF1F15E6826F03F068E
:100870000E435E606368934206D94FF49673594302
:100880004FF47A73B1FBF3F12368491C1E6A26F01A
:100890003F06314319626168914210D84900401EF9
:1008A000B0FBF1F2521CC2F30B02042A01D2042065
:1008B00022E0B0FBF1F0401CC0F30B001CE0A2688A
:1008C000F2B301EBC10303EB0116431EB3FBF6F3D6
:1008D0005B1C43F480431B0549D092B301EBC1027A
:1008E00002EB0111401EB0FBF1F0401CC0F30B0005
:1008F00040F4804040F400402168CA694CF6FF7320
:100900009A431043C861D4E9071001432068026884
:1009100022F0C00211430160D4E9030101432068C1
:10092000826848F2FF339A4311438160D4E905019C
:1009300008432168CA6822F0FF021043C86001E042
:100940000EE016E02068016841F0010101602564B5
:10095000202084F83D00256384F83E50002070BDBF
:1009600001EB4106431EB3FBF6F35B1CB3E701202A
:10097000C2E701EB4101401EB0FBF1F0401CC0F3A7
:100980000B00B7E7A086010080841E0000093D002F
:1009900040420F002DE9F04186B00446142168461C
:1009A000FFF7D9FC23683B4CDFF8E4C0002239494B
:1009B00012250326042738481034634518D10B68E4
:1009C00043F002030B60096802AB01F002010591DC
:1009D000C021CDE9001583E8C4006946FFF712FE87
:1009E000206840F400102060206800F400101CE033
:1009F000DFF8A8C063451CD10B6843F002030B600D
:100A0000096802AB01F0020105914FF44061CDE9A4
:100A1000001583E8C4006946FFF7F4FD206840F440
:100A200080002060206800F48000059006B0BDE8DA
:100A3000F0811B488342F9D10868904640F00400D9
:100A40000860086800F004000590086840F00100A4
:100A500008600868694600F00100059058158DE8A7
:100A600021011048CDE90367FFF7CCFD4FF48070FA
:100A70008DE8210169460C48CDE90367FFF7C2FD07
:100A8000206840F400002060206800F40000CCE7FB
:100A9000005400403038024000040240005800403A
:100AA000005C0040000802400000024002488168EB
:100AB0000278114481607047040000200B4810B593
:100AC000016841F400710160016841F480610160D6
:100AD000016841F480710160032000F06FF80F207D
:100AE00000F006F800F024F8002010BD003C0240A1
:100AF00070B50D4D04464FF47A712878B1FBF0F0D3
:100B00000A490968B1FBF0F000F00CFB48B9102C61
:100B100007D200222146501E00F030F800206C6001
:100B200070BD012070BD0000040000200000002006
:100B30000A4808B5016841F480410160006800F48A
:100B4000804000900548001F016841F0805101601D
:100B5000006800F08050009008BD0000443802405A
:100B6000002809DB00F01F020121914040098000AC
:100B700000F1E020C0F8001170470000F0B40E4B07
:100B80001B680C46C3F30223C3F10705042D00D9EB
:100B90000425191D072901D2002300E0DB1E0126D0
:100BA00006FA05F1491E214099409E40761E1640E6
:100BB0003143F0BC01F0E5BD0CED00E0064900F06A
:100BC000070208684FF6FF03184040EA0220034A74
:100BD00010430860704700000CED00E00000FA05CB
:100BE0002DE9F0470E46050065D0DFF81481D8F8EE
:100BF0000000F7B200F00700B04207D288F800709A
:100C0000D8F8000000F00700B04254D128683D4CED
:100C1000810712D5400703D5206840F4E0502060DA
:100C20002878000703D5206840F4604020602068E1
:100C3000A96820F0F000084320602878C0072DD074
:100C4000304968680839012812D0022813D00328D7
:100C500011D00968890700292DDA216821F00301E4
:100C600001432160FFF7CCFD814641F2883A0EE056
:100C700009688903EFE709688901ECE7FFF7C0FD20
:100C8000A0EB0901514502D90320BDE8F087206897
:100C9000696800F00C00B0EB810FEFD1D8F80010BC
:100CA000404601F00701B14207D90770006800F023
:100CB0000700B04201D00120E7E72878400705D5BA
:100CC0002068E96820F4E050084320602878000795
:100CD00006D52068296920F4604040EAC100206000
:100CE00000F038F82168084AC1F30311515CC8408C
:100CF0000649086006480068FFF7FAFE0020C4E7CE
:100D0000003C0240083802409628000800000020FD
:100D1000080000200448054900680968044AC1F336
:100D20008221515CC8407047000000200838024012
:100D3000A62800080448054900680968044AC1F368
:100D40004231515CC8407047000000200838024022
:100D5000A6280008154810B5006810F00C021448C9
:100D600013D01449042A0FD0082A0ED10F4C241F87
:100D70002268236802F03F025B0207D52068C0F3B7
:100D80008810A0FB010106E0084610BD2168C1F3F0
:100D90008811A1FB00010023FFF766FA2168C1F367
:100DA0000141491C4900B0FBF1F010BD0838024078
:100DB0000024F40040787D012DE9F84F04006ED046
:100DC0002078DFF84C93C007A9F104054AD009F157
:100DD00004000168C1F38101012908D00068C0F353
:100DE000810002280AD1D9F80000400206D52868FF
:100DF000800337D560680028E1D033E06068B0F543
:100E0000803F10D0B0F5A02F286810D020F480309B
:100E10002860286820F4802028606068A8B1FFF767
:100E2000EFFC06460DE0286840F48030F4E740F41B
:100E300080202860F7E700BFFFF7E2FC801B6428F2
:100E400073D828688003F7D50CE0FFF7D9FC064675
:100E500005E000BFFFF7D4FC801B6428F0D82868A9
:100E60008003F7D42078DFF8AC8280074FF0000AC7
:100E70003ED5A748001D016811F00C0F08D000688E
:100E8000C0F3810002280BD1D9F80000400207D43A
:100E90002868800716D5E068012800D112E033E108
:100EA000E068B8B10120C8F80000FFF7A9FC0646C9
:100EB00005E000BFFFF7A4FC801B0228C0D828680B
:100EC0008007F7D52868216920F0F80040EAC100C2
:100ED00028600DE0C8F800A0FFF792FC064604E089
:100EE000FFF78EFC801B02281FD828688007F7D4E4
:100EF0002078000722D5864F87486169703771B125
:100F000001210160FFF77CFC064604E0FFF778FC56
:100F1000801B022809D838688007F7D50EE0C0F892
:100F200000A0FFF76DFC064605E082E0FFF768FCD5
:100F3000801B02287DD838688007F7D420784007C6
:100F400068D5DFF8CCB100270BF13C0BDBF80000D3
:100F5000C0000BD4DBF8001041F08051CBF800103A
:100F6000DBF80000012700F0805000906B4E3068E5
:100F7000C00510D4306840F480703060FFF740FC4A
:100F8000009005E0FFF73CFC0099401A022850D879
:100F90003068C005F6D55E4EA0686C3601280FD0CB
:100FA0000528306810D020F001003060306820F053
:100FB00004003060A068B8B1FFF722FC00900FE099
:100FC000306840F00100F4E740F004003060F7E7DB
:100FD000FFF716FC0099411A41F28830814266D829
:100FE00030688007F4D50EE0FFF70AFC009007E0B8
:100FF000FFF706FC0099411A41F28830814256D829
:1010000030688007F4D42FB1DBF8001021F0805154
:10101000CBF80010A069C8B33D49091D0968C1F3A8
:10102000810102294AD00228504607D0C8F8600042
:1010300000E03CE0FFF7E4FB04463BE04746C8F82D
:101040006000FFF7DDFB064605E000BFFFF7D8FBB9
:10105000801B02282BD828688001F7D4D4E9070127
:101060000843A16A2E4A490802EB0141626A41EA3B
:101070008211084394F82C1040EA0161C9F800106D
:1010800001203866FFF7BCFB044606E03EE000BFE7
:10109000FFF7B6FB001B022809D828688001F7D5A6
:1010A00034E000BFFFF7ACFB001B022802D903208D
:1010B000BDE8F88F28688001F4D427E00128F7D034
:1010C000D9F80000E26900F4800191421CD1226A43
:1010D00000F03F01914217D147F6C071626A0140AA
:1010E000B1EB821F10D1A26A4FF0FF3300F4403100
:1010F00003EB5202B1EB024F06D194F82C1000F032
:101100007060B0EB016F01D00120D1E70020CFE784
:101110000438024000004742800E47420070004001
:101120000000FFFF10B5401EB0F1807F01D3012009
:1011300010BD4FF0E02460610F21601701F021FB2A
:101140000020A06107202061002010BD70B590F83C
:101150003C20012A32D0012480F83C40022280F851
:101160003D2003685A689D6822F070060A68324381
:101170005A60134B02689A4214D0B2F1804F11D0DA
:10118000104B9A420ED0104B9A420BD00F4B9A4202
:1011900008D00F4B9A4205D00E4B9A4202D00E4B0C
:1011A0009A4204D1496825F080031943916080F880
:1011B0003D40002180F83C10084670BD022070BD03
:1011C000000001400004004000080040000C004006
:1011D00000040140004001400018004030B587B0D5
:1011E000044614216846FFF7B6F824680022304907
:1011F00002233048B4F1804F0CD02F4DAC421DD1AA
:101200000C6844F001040C60096801F001010591CB
:10121000402131E00C6844F001040C60096801F0E1
:101220000101059120210091CDE901320121CDE993
:1012300003216946FFF7E6F907B030BD1F4DAC4208
:101240000ED1086840F0080008600868694600F0A0
:1012500008000590A0140090CDE9013218480FE075
:10126000184DAC420FD10C6844F001040C600968C1
:1012700001F0010105910F210091CDE9013269468C
:10128000CDE90323D6E710488442D5D1086840F061
:10129000100008600868694600F0100005906020A2
:1012A0000090CDE901320320CDE903200748C1E7D2
:1012B00030380240000002400004004000080040B6
:1012C000000C0240000C00400040014000100240B1
:1012D00070B5044690F83C0000260D4601280FD05A
:1012E000012084F83C006AB1042A1DD0082A2FD0BE
:1012F0000C2A3FD00126002084F83C00304670BD07
:10130000022070BD206801F051F82068816941F029
:10131000080181612068816921F0040181612068F0
:1013200081692A69114311E0206801F06FF8206893
:10133000816941F4006181612068816921F48061E3
:101340008161206881692A6941EA02218161D2E7CD
:10135000206801F091F82068C16941F00801C1617D
:101360002068C16921F00401C1612068C1692A694E
:10137000114311E0206801F0B3F82068C16941F41D
:101380000061C1612068C16921F48061C161206888
:10139000C1692A6941EA0221C161ACE710B50400C4
:1013A00003D094F83D0010B107E0012010BD0020EB
:1013B00084F83C00204600F01FF8022084F83D002D
:1013C000211D206800F07CFF012084F8460084F88D
:1013D0003E0084F83F0084F8400084F8410084F81F
:1013E000420084F8430084F8440084F8450084F8FF
:1013F0003D00002010BD000008B501681D48B1F196
:10140000804F0BD01C4A914210D1016841F002017B
:101410000160006800F00200009008BD016841F022
:1014200001010160006800F00100F5E7134A9142F4
:1014300007D1016841F004010160006800F0040078
:10144000EAE70F4A914207D1016841F008010160C3
:10145000006800F00800DFE70A488142DDD1054856
:10146000001D016841F480310160006800F48030A3
:10147000D2E700004038024000040040000800406D
:10148000000C00400040014010B50446022249B162
:1014900004290ED0082913D094F84100012816D051
:1014A000012010BD94F83E000128F9D184F83E20B7
:1014B0000FE094F83F000128F2D184F83F2008E0C3
:1014C00094F840000128EBD184F8402001E084F832
:1014D00041200122206800F05BFF16492068164A6F
:1014E000884201D0904203D1436C43F400434364EB
:1014F0002068884213D0B0F1804F10D00F49884245
:101500000DD00F4988420AD00E49884207D0904238
:1015100005D00D49884202D00C49884204D1816827
:1015200001F00701062903D0016841F001010160C3
:10153000002010BD000001400004014000040040F4
:1015400000080040000C004000400140001800402E
:1015500030B504460D460068002200F019FF194B13
:1015600041F2111120688A10984202D0164B98421D
:1015700009D1036A0B4206D1036A134203D1436CBB
:1015800023F4004343642068036A0B4206D1016AD6
:10159000114203D1016821F00101016001203DB138
:1015A000042D08D0082D09D084F84100002030BD5A
:1015B00084F83E00FAE784F83F00F7E784F840003B
:1015C000F4E700000000014000040140704770474C
:1015D000F8B5016804460868CA684B6910F00F0F37
:1015E0004FF0000559D003F0010602F4907737431D
:1015F00065D0C10705D0D10503D5616C41F001016B
:101600006164410705D5D90703D0616C41F002013F
:101610006164810705D5D90703D0616C41F00401ED
:101620006164010707D502F02001314303D0616CEA
:1016300041F008016164616C00293AD0800604D54C
:10164000900602D5204600F0A1FF20684069616C39
:10165000C0F38010090700D460B3204600F06FFF8C
:1016600020684069400621D52068143050E8001FEA
:1016700021F0400140E80012002AF5D1E06BA8B14A
:1016800072490165E06BFEF799FF002811D0E06B0D
:10169000016D01B0BDE8F040084783060FD5930601
:1016A0000DD52046BDE8F84000F070BF2046FFF79A
:1016B0008EFFF8BD2046FFF78AFF6564F8BD266BF4
:1016C0002023012E7ED1C6067CD5D6067AD50868A1
:1016D0004868009048694FF0020640064DD5E26B1D
:1016E000106840684FF480770004000C3AD0A18D58
:1016F000814237D9E085D069B8422DD020680C30BE
:1017000050E8001F21F4807140E80012002AF5D152
:101710002068143050E8001F21F0010140E8001259
:10172000002AF5D12068143050E8001F21F0400154
:1017300040E80012002AF5D184F842302563206881
:101740000C3050E8001F21F0100140E80012002A80
:10175000F5D1E06BFEF7E9FE6663A08DE18D401ADE
:1017600081B206E0A18D8142A8D1D069B842A5D14D
:1017700066632046FFF72AFFF8BDA08DE18D401A71
:1017800081B2E08D0028F7D00029F5D020680C3018
:1017900050E8002F22F4907240E80027002FF5D186
:1017A0002068143050E8002F22F0010240E80027A2
:1017B000002FF5D184F84230256320680C3050E8C2
:1017C000002F00E006E022F0100240E80023002B8A
:1017D000F3D1CDE705062BD5150629D594F84100A0
:1017E0002128C9D1A068B0F5805F01D12069B0B1CE
:1017F000206A411C2162216800784860E08C401E0C
:101800000004000CE084B7D12068C16821F0800199
:10181000C1602068C16841F04001C160F8BD206A24
:101820000088C0F308004860206A801C2062E5E759
:101830004006F3D55006F1D5CA68204622F0400292
:10184000CA6084F8413000F0C6F8F8BD31250008C0
:1018500070B5040004D094F84100002510B106E0F2
:10186000012070BD84F84050204600F023F8242069
:1018700084F841002068C16821F40051C16020460D
:1018800000F0E6FE2068016921F4904101612068C2
:10189000416921F02A0141612068C16841F4005189
:1018A000C1606564202084F8410084F842006563CB
:1018B000002070BDF0B587B0044614216846FEF7DD
:1018C0004AFD3F49DFF8F4C0276800223C4B10393D
:1018D0000224032507263B4867451FD11F6847F4AC
:1018E00000371F601B6803F4003305930B6843F057
:1018F00008030B60096802AF01F00801059160213F
:10190000CDE9001487E864006946FEF77BFE0022FB
:1019100011462620FFF732F9262023E0DFF8A8C081
:10192000674523D11F6847F480271F601B6803F4B5
:10193000802305930B6843F008030B60096802AF2E
:1019400001F0080105914FF44071CDE9001487E8DA
:1019500064006946FEF756FE002211462720FFF775
:101960000DF92720FFF7FCF807B0F0BD17488742B4
:10197000FAD11348001D036843F020030360006898
:1019800000F020000590086840F004000860086836
:10199000029200F004000590C020CDE90004082068
:1019A000CDE9035069460A48FEF72CFE0022114695
:1019B0004720FFF7E3F84720D4E700000044004049
:1019C00040380240000C0240004800400014014032
:1019D0000008024070477047FEE700002DE9F04321
:1019E00087B014216846FEF7B6FC3D480024016824
:1019F00041F010010160016801F0100105910168DA
:101A000041F080010160016801F0800105910168E9
:101A100041F001010160016801F0010105910168D7
:101A200041F004010160016801F0040105910168C1
:101A300041F002010160016801F0020105910168B5
:101A400041F0080101600068DFF8989000F008009C
:101A50000590002280214846FEF7CCFE224F00224E
:101A600010213846FEF7C6FEDFF88080FE14002203
:101A700031464046FEF7BEFE802000900125CDE9AC
:101A80000154694648460394FEF7BCFD10200090BF
:101A9000CDE90154694638460394FEF7B3FD00963C
:101AA000CDE90154694640460394FEF7ABFD680258
:101AB000CDE90004694648460294FEF7A3FD4FF4C1
:101AC000E05000900220CDE90104032003900A2099
:101AD000049069464846FEF795FD07B0BDE8F083DF
:101AE000303802400000024000080240000C024072
:101AF0000D4810B50B4901600C49416000214FF4BD
:101B000080428160C0E9031241618161C16101626B
:101B1000FEF77CFE002803D0BDE81040FEF703BDB1
:101B200010BD00000054004010000020A0860100FD
:101B30000D4810B50B4901600C49416000214FF47C
:101B400080428160C0E9031241618161C16101622B
:101B5000FEF75CFE002803D0BDE81040FEF7E3BCB2
:101B600010BD00000058004064000020A086010065
:101B70000D4810B50B4901600C49416000214FF43C
:101B800080428160C0E9031241618161C1610162EB
:101B9000FEF73CFE002803D0BDE81040FEF7C3BCB2
:101BA00010BD0000005C0040B8000020A0860100CD
:101BB00010B58AB0002407941C2168460894FEF7EB
:101BC000CAFB15484FF08041C0E90014611EC0E90E
:101BD0000241802104618161FFF7E0FB08B1FEF75B
:101BE000A2FC079407A90C480894FFF7AFFA08B1C4
:101BF000FEF799FC6020CDE90004029400226946BA
:101C000005480494FFF764FB08B1FEF78CFC02481A
:101C1000FFF7E4FA0AB010BD0C01002010B58AB03D
:101C2000002407941C2168460894FEF794FB16488C
:101C30001449C0E900144FF6FF71C0E90241802148
:101C400004618161FFF7AAFB08B1FEF76CFC079401
:101C500007A90D480894FFF779FA08B1FEF763FC6D
:101C60006020CDE9000402940022694606480494ED
:101C7000FFF72EFB08B1FEF756FC0348FFF7AEFA5C
:101C80000AB010BD000400405401002010B58AB015
:101C9000002407941C2168460894FEF75CFB164854
:101CA0001449C0E900144FF6FF71C0E902418021D8
:101CB00004618161FFF772FB08B1FEF734FC079401
:101CC00007A90D480894FFF741FA08B1FEF72BFC6D
:101CD0006020CDE90004029400226946064804947D
:101CE000FFF7F6FA08B1FEF71EFC0348FFF776FA95
:101CF0000AB010BD000800409C01002010B58AB059
:101D0000002407941C2168460894FEF724FB214810
:101D10001F49C0E90014611EC0E9024104618461E9
:101D2000FFF73CFB08B1FEF7FEFB079407A9194833
:101D30000894FFF70BFA08B1FEF7F5FB6020CDE938
:101D4000000402940022694612480494FFF7C0FA86
:101D500008B1FEF7E8FB042269460E48FFF7B8FA1F
:101D600008B1FEF7E0FB082269460A48FFF7B0FA1F
:101D700008B1FEF7D8FB0C2269460648FFF7A8FA1F
:101D800008B1FEF7D0FB0348FFF728FA0AB010BDF0
:101D9000000C0040E401002010B588B01C2168460A
:101DA000FEF7D9FA154814490024C0E900144FF68B
:101DB000FF71C0E9024104618461FFF7EFFA08B1E5
:101DC000FEF7B1FB6020CDE90004029400226946D1
:101DD0000A480494FFF77CFA08B1FEF7A4FB04223A
:101DE00069460648FFF774FA08B1FEF79CFB034802
:101DF000FFF7F4F908B010BD004001402C020020AC
:101E00000C4810B50A4901604FF4E13141600021EE
:101E100081600C22C160C0E904128161C161FFF7D9
:101E200017FD002803D0BDE81040FEF77CBB10BDB5
:101E300000440040740200200C4810B50A490160BB
:101E40004FF4E1314160002181600C22C160C0E9A2
:101E500004128161C161FFF7FBFC002803D0BDE8DB
:101E60001040FEF760BB10BD00480040BC020020DF
:101E70000C4810B50A4901604FF4E131416000217E
:101E800081600C22C160C0E904128161C161FFF769
:101E9000DFFC002803D0BDE81040FEF744BB10BDB6
:101EA00000140140040300207047FEE770B51E4C8B
:101EB00000252DED028B9FED1D8A257084ED018A92
:101EC00084ED028A84ED038A84ED048A257518481E
:101ED0001849A061C4E907518021A18400685326F4
:101EE000866200211248FFF733FB84F8285084ED06
:101EF0000B8A84ED0C8A84ED0D8A84ED0E8A84F8B9
:101F00003C500D480D492064C4E911511021A4F83A
:101F10004C10006886620021BDEC028B0648BDE8CB
:101F20007040FFF715BB00004C03002000000000CC
:101F30000C01002000000240540100200008024073
:101F4000012801D900207047044900EB800011F8F6
:101F500030000028F7D00120704700004C0300201B
:101F600001281FD8B5EEC00AF1EE10FA1AD90E4AB0
:101F700000EB800002EBC000012280ED030A9FED20
:101F80000B0A002980ED040A80ED010A80ED020AA7
:101F900002700175818C006A02D00022FEF72ABC13
:101FA0000122FBE7704700004C0300200000000006
:101FB00010B5044800F008F80248BDE81040283089
:101FC00000F002B84C03002030B4017800297CD026
:101FD000DFED800AD0ED032AD0ED041A90ED010A5E
:101FE00032EEE13A20EE001A9FED7B2A10EE102A25
:101FF0007A4BC1EE023A00249FED792A9FED794A8F
:102000009FED791A9A4237DAB4EEE33AF1EE10FA1C
:1020100032DD012904D0022913D0032971D11AE03D
:1020200090ED020A714A00EE820A10EE101A80ED5D
:10203000020A914265DB9FED6E0A022180ED020AE1
:1020400041E090ED022A02EE200A10EE101A9942A9
:1020500057DB032137E090ED020A00EEC20A80ED63
:10206000020AB5EEC00AF1EE10FA4AD880ED021A63
:1020700080ED014A042126E0B4EEE33AF1EE10FAD5
:1020800003D910EE102A9A423BDB082939D2DFE847
:1020900001F038040404040A1D289FED560A0521A6
:1020A00080ED020A0FE090ED020A534A00EEC20AE8
:1020B00010EE101A80ED020A914222D39FED4F0AD2
:1020C000062180ED020A01701BE081E090ED022AFA
:1020D00002EE200AB5EEC00AF1EE10FA11D807217F
:1020E000F1E790ED020A00EE820A80ED020AB5EEF9
:1020F000C00AF1EE10FA04DB80ED021A80ED011A3D
:1021000024E090ED010A90ED022A02EE200A80ED13
:10211000010AB5EEC00AF1EE10FA01D280ED011A03
:102120004168994201DD80ED014A90ED010A40EEDF
:10213000201AC0ED041AF4EEE21AF1EE10FA0BDBED
:10214000C0ED042A80ED011A80ED021A0470C16905
:10215000806930BCFFF7FCB9B5EEC00AF1EE10FAA9
:1021600036DDB7EE001AC1EE000A9FED250A20EE1B
:10217000800ABCEEC00A10EE101A491E0A2901D2CC
:102180000A2104E0B1F5803F01D34FF6FF71826967
:102190001268D1628269D160C2696AB1042A10D022
:1021A000082A82694FEA510112680FD01164C1698F
:1021B000806930BCFFF768B98269490812685163C9
:1021C000F5E78269490812689163F0E7D163EEE7A9
:1021D00030BC70476F12833A00401C4600800945AE
:1021E00000A49C46008009450000000000409C457A
:1021F00000409C456766A0C100409CC500409CC54E
:1022000000247449FEE77047704710B5FEF74EFC96
:10221000BDE81040FFF7CCBE30B593B03021684622
:10222000FEF799F814210CA8FEF795F81E48002532
:10223000016841F080510160006800F08050119009
:102240001A48016841F4804101600068022400F4EA
:102250008040119001200090000401908001CDE9A0
:102260000640192008904FF4A870CDE90904072012
:102270000B906846FEF7A0FD08B172B6FEE70CA908
:102280000F2081E831004FF4A0500F904FF48050A0
:10229000109005210CA8FEF7A3FC002801D072B60F
:1022A000FEE713B030BD000040380240007000402F
:1022B0000248016841F470010160704788ED00E058
:1022C000F0B50268274B284D284E294F294C4FF076
:1022D000804C984209D0604507D0A84205D0B04252
:1022E00003D0B84201D0A04204D122F0700E4A6857
:1022F00042EA0E0298421BD0604519D0A84217D07E
:10230000B04215D0B84213D0A04211D01A4DA84205
:102310000ED01A4DA8420BD0194DA84208D0194D25
:10232000A84205D0184DA84202D0184DA84203D1AA
:1023300022F44075CA682A434D6922F080022A437C
:102340008D68C5620D688562984201D0A04201D1B6
:1023500009690163016841F00401016001214161E3
:102360000260F0BD00000140000400400008004091
:10237000000C0040000401400040014000440140C6
:102380000048014000180040001C004000200040B0
:1023900010B501F01F030121046A99408C430462C7
:1023A000016A9A401143016210BD0000F0B5036A52
:1023B000026A22F00102026242688469124E24F02D
:1023C00073050C682C4323F002058B682B430D4DDD
:1023D000A84201D0B04205D123F00807CB683B43A7
:1023E00023F00403A84201D0B04205D14D6922F484
:1023F000407215438A692A43426084614968416397
:102400000362F0BD0000014000040140F0B5026A23
:10241000036A23F010030362436884690D6824F49F
:10242000E64444EA05248D6822F0200242EA0512BF
:102430000F4D104EA84201D0B04206D1CF6822F015
:10244000800242EA071222F04002A84201D0B042C4
:1024500007D14D6923F4406343EA85038D6943EA5C
:10246000850343608461496881630262F0BD0000B6
:102470000000014000040140F0B5026A036A23F441
:10248000807303624368C46922F4007224F0730508
:102490000C68124E2C438D6842EA05220E4DA8426C
:1024A00001D0B04206D1CF6822F4006242EA07228E
:1024B00022F48062A84201D0B04207D14D6923F4D2
:1024C000405343EA05138D6943EA05134360C46131
:1024D0004968C1630262F0BD000001400004014090
:1024E00030B5046A026A22F4805202624268C3690B
:1024F0000D6823F4E64343EA05238D6824F4005471
:1025000044EA0534084DA84202D0084DA84204D13F
:102510004D6922F4804242EA85124260C3614968F3
:102520000164046230BD000000000140000401406D
:1025300010B5806B0021C185FFF749F810BD016817
:102540000C3151E8002F22F4907241E80023002B57
:10255000F5D10168143151E8002F22F0010241E861
:102560000023002BF5D1016B012909D101680C3141
:1025700051E8002F22F0100241E80023002BF5D192
:10258000202180F8421000210163704708B590F8BF
:102590004210222901D0022008BD82684FF48053E6
:1025A0009A4201D1016921B1816A9A421BD04AB194
:1025B0000AE00268816A5268C2F308020A80816AEE
:1025C000891C08E0026972B10268526802F07F0259
:1025D0000A70816A491C8162C18D491E0904090C77
:1025E000C18503D01BE002685268F1E70168CA6840
:1025F00022F02002CA600168CA6822F48072CA60B0
:1026000001684A6922F001024A61202180F84210E3
:1026100000214163026B012A03D0FFF7DBF90020A0
:1026200008BD016301680C3151E8002F22F010024F
:1026300041E80023002BF5D101680A68D20602D5D3
:102640000A6849680091818DFEF7C0FFE7E7000046
:1026500070B5044600680169E26821F440511143F5
:1026600001612169A068E269084361691143084377
:102670002168CA6849F20C639A430243CA60206821
:102680004169A26921F440711143416131492068D7
:10269000884202D03049884202D1FEF74BFB01E06C
:1026A000FEF738FBE2690023192164253226B2F5D2
:1026B000004F626828D0A0FB0101930F9200FDF744
:1026C000D3FD0146B0FBF5F06FF01802504301EB6B
:1026D000800006EB0010B0FBF5F000F0F002B1FB5B
:1026E000F5F002EB0012B1FBF5F06FF01803584360
:1026F00001EB800006EB0010B0FBF5F000F00F00DE
:1027000021681044886070BDA0FB010192185B41F4
:10271000FDF7AAFD0146B0FBF5F00201B1FBF5F0B3
:102720006FF01803584301EB800006EBC000B0FBCC
:10273000F5F000F0F80002EB4002B1FBF5F0584371
:1027400001EB800006EBC000B0FBF5F000F00700E5
:10275000D6E7000000100140001401400148FEF7D8
:1027600037BF0000740200200148FEF731BF0000AF
:10277000BC0200200148FEF72BBF0000040300202C
:10278000FEE70907090E002804DB00F1E02080F8CD
:102790000014704700F00F0000F1E02080F8141DD5
:1027A00070470000FEF78AF9FFF736FDFFF716F9CC
:1027B000FFF79EF9FFF7BCF9FFF7DAF9FFF7F8F931
:1027C000FFF72CFAFFF762FAFFF798FAFFF7E4FA3F
:1027D000FFF716FBFFF730FBFFF74AFBFFF764FB41
:1027E00024484FF47A740068B0FBF4F0401EB0F156
:1027F000807F0AD24FF0E02148611F4AF02082F822
:10280000140D0020886107200861FDF709FE9FED87
:102810001B0AFDF713FE00BFFDF704FE0028FBD1E5
:102820002046FDF7DDFE9FED160AFDF735FE00BFE1
:10283000FDF7F8FD0028FBD12046FDF7D1FE9FED06
:10284000110AFDF729FE00BFFDF7ECFD0028FBD1C2
:102850002046FDF7C5FE9FED0C0AFDF7EFFD00BF1A
:10286000FDF7E0FD0028FBD14FF4FA60FDF7B8FE5C
:102870002046FBE7000000200FE000E00000964348
:102880000000B4420000B4C2000096C34FF0407094
:10289000E1EE100A70470000000000000000010295
:1028A00003040607080900000000010203040000F9
:1028B000D02800080000002010000000C40100081B
:1028C000E028000810000020F0090000E0010008E6
:1028D0000024F400010000001000000000000000CF
:040000050800018965
:00000001FF
